:020000040800F2
:10000000A00E00204901000851010008530100081A
:1000100055010008570100085901000800000000C0
:100020000000000000000000000000005B0100086C
:100030005D010008000000005F010008491E000883
:100040006301000863010008630100086301000800
:1000500063010008630100086301000863010008F0
:1000600063010008630100086301000863010008E0
:1000700063010008630100086301000863010008D0
:1000800063010008630100086301000863010008C0
:1000900063010008630100086301000863010008B0
:1000A00063010008AD1E0008630100086301000839
:1000B000BD1E0008F51E00082D1F00086301000882
:1000C0006301000863010008630100086301000880
:1000D00063010008E51F0008E1200008D5210008A1
:1000E0006301000863010008630100086301000860
:1000F0006301000863010008630100086301000850
:10010000630100086301000863010008630100083F
:10011000630100086301000863010008630100082F
:10012000630100086301000863010008630100081F
:10013000DFF810D000F0D4FB00480047E92C00089D
:10014000AFF30080A00E0020064880470648004715
:10015000FEE7FEE7FEE7FEE7FEE7FEE7FEE7FEE777
:10016000FEE7FEE74D1E000831010008D2B201E0B3
:1001700000F8012B491EFBD270470022F6E710B5AC
:1001800013460A4604461946FFF7F0FF204610BD05
:1001900030B505462A460B4612F8010B13F8014B01
:1001A00008B1A042F8D01CB1002802D06D1CF1E7C4
:1001B000284630BDF0B480EA0102D40F4200B2EB11
:1001C000410F02D20246084611464A0042D0C30DF2
:1001D000DDB2C1F3C752AD1A202D35DAC1F31601D5
:1001E00041F4000204B15242C5F1200602FA06F1C0
:1001F0002A411044B3EBD05F23D0C4B1012DA0EB52
:10020000C35009DCF0BC4FF0004202EAC352DBB23B
:1002100000F5000000F039BA400000F1807000EBFA
:10022000C350A0F1807040EAD170490009E049084C
:1002300041EAC071A0EBC35000F50000400800EB9C
:10024000C350F0BC00F018BA6142012202EB410138
:10025000001BF6E7F0BC704781F00041AAE780F090
:100260000040A7E730B480EA010202F0004530F018
:10027000004221F0004013D090B1C30DD40DC2F361
:100280001601C0F31600E41A41F4000140F4000224
:100290007D34914201D3641C00E04900002C02DA55
:1002A00030BC002070474FF400000023914201D37E
:1002B000891A034340084FEA4101F7D151B19142F5
:1002C00002D14FF0004105E002D24FF0010101E000
:1002D0006FF0010103EBC450284430BC00F0CCB9EE
:1002E0002DE9FE4F804681EA0300C00F0C460090C6
:1002F00021F0004123F00045B8EB0200A94105D2EE
:100300004046214690461C460B46024623F00040DC
:10031000104347D0270DC7F30A00C3F30A510290D8
:10032000401A019040286BDAC3F3130040F4801B9D
:100330000098924620B10023D2EB030A63EB0B0B2B
:1003400001985946C0F14002504600F074F9064643
:100350000D4650465946019A00F07CF910EB080012
:100360006141002487EA115284EAE7731A4340D0BE
:10037000009A62B3019A012A4FEA075215DC001B6A
:1003800061EB02014FF0004202EA0752CDE9004260
:10039000001C41F5801132462B4600F0B3F903B042
:1003A000BDE8F08F40462146F9E7001B61EB0201F2
:1003B000001C41F5801300185B412018A2F50017BE
:1003C00047EB030140EAD570B6196D4111E06D08A5
:1003D0004FEA360645EAC0754FEA0752001B61EB4B
:1003E0000201001C41F5801149084FEA3000001954
:1003F000514132462B4603B0BDE8F04F00F073B9CF
:100400000098012240000023D0EB020263EBE0736E
:10041000009821464FEAE074B8EB000061EB04015C
:10042000E9E783F000435BE781F0004158E72DE9FD
:10043000FE4F81EA030404F0004421F000410094DF
:100440004FF0000B23F0004350EA01045ED052EA63
:1004500003045BD0C3F30A54C1F30A552C44A4F23D
:10046000F3340194A0FB0254C1F3130141F4801151
:10047000C3F3130343F4801301FB024400FB034E58
:10048000840A970A44EA815447EA8357A4FB076821
:1004900002958D0A05FB07854FEA932C04FB0C544B
:1004A0002705029D4FEA065847EA1637B5EB0805BF
:1004B0006EEB070C870E920E47EA811742EA831211
:1004C000A7FB0201B6EB0B0164EB00042B0D43EA22
:1004D0000C335E1844EB1C50DA465146E7FB020130
:1004E000C5F313044FEA0B3343EA14534FEA0432C3
:1004F000019C43EA0603A4F10C040294009CCDE99C
:1005000000B400F0FFF803B0BDE8F08F0020014612
:10051000F9E70EB5C10F80EAE0700844CA07002170
:1005200040F233438DE80E000A460B4600F0EAF82D
:1005300003B000BD00F0004230F000400AD0C10D11
:1005400001F56071C0F3160042EA0151C20840078C
:100550001143704700200146704701F0004330B45A
:1005600021F0004150EA010206D00A0DA2F56072A6
:10057000C1F31301002A02DC30BC00207047440F95
:1005800044EAC104C100E01830BC00EBC25000F0E6
:1005900073B80000002801DBC0F10040002901DB36
:1005A000C1F100418842704730B50B46014600203A
:1005B0002022012409E021FA02F59D4205D303FA25
:1005C00002F5491B04FA02F52844151EA2F10102A6
:1005D000F1DC30BD2DE9F05F0546002092469B46D8
:1005E00088460646814640241BE028464146474649
:1005F000224600F087F953465A46C01A914110D35B
:1006000011461846224600F016F82D1A67EB01082D
:100610004F4622460120002100F00DF817EB00099B
:100620004E41201EA4F10104DFDC484631462A4633
:100630004346BDE8F09F202A04DB203A00FA02F18D
:10064000002070479140C2F1200320FA03F31943C0
:1006500090407047202A06DBCB17203A41FA02F07F
:1006600043EAE07306E041FA02F3D040C2F120020F
:1006700091400843194670470029A8BF7047401CA5
:10068000490008BF20F00100704710B4B0FA80FCA8
:1006900000FA0CF050EA010404BF10BC704749B1E5
:1006A000CCF1200421FA04F411FA0CF118BF012155
:1006B00021430843A3EB0C01CB1D4FEA00614FEA35
:1006C000102042BF002010BC704700EBC350104404
:1006D0000029A4BF10BC7047401C490008BF20F08F
:1006E000010010BC704710B5141E73F1000408DA45
:1006F000401C41F1000192185B411A4301D120F0E6
:10070000010010BD2DE9F04D92469B4611B1B1FAA2
:1007100081F202E0B0FA80F220329046FFF78BFFC0
:1007200004460F4640EA0A0041EA0B0153465A4686
:10073000084313D0114653EA010019D0C8F1400212
:10074000504600F0DFF805460E46504659464246F0
:10075000FFF771FF084305D0012004E02046394629
:10076000BDE8F08D0020054346EAE0762C43374390
:100770000A986305E40AA0EB08000022FD0A44EA97
:1007800047540A3002D500200146E9E70105101957
:100790006941DDE9084500196941BDE8F04DA2E76E
:1007A0002DE9F04D81EA030404F0004B21F00045EF
:1007B00014464FF0000A23F0004150EA050220D011
:1007C00054EA01021DD0C5F30A570246C5F31303CC
:1007D000C1F31300C1F30A5640F4801543F48013AB
:1007E000A7EB0608101BD64608F2FD3873EB050090
:1007F00002D308F1010801E092185B41B8F1000F43
:1008000003DA00200146BDE8F08D00204FF480118E
:10081000064684460EE0171B73EB050705D3121B33
:1008200063EB050306434CEA010C49084FEA30002C
:1008300092185B4150EA0107EDD152EA030012D051
:1008400082EA040083EA0501084305D0101BAB418E
:1008500006D20122002306E000224FF0004302E00E
:100860006FF0010253101AEB06004CEB085110EB2D
:100870000A0041EB0B01BDE8F04DFFF734BFC1F3B7
:100880000A52C1F3130140F2FF3341F480119A423E
:1008900002DA00200146704740F233439A42A2F246
:1008A000334202DC524200F02DB8FFF7C4BE000014
:1008B00030B5041E71F1000404DB4FF000444042E7
:1008C00064EB0101141E73F1000405DB1C464FF0BC
:1008D0000043524263EB0403994208BF904230BD8B
:1008E000064C074D06E0E06840F0010394E807007D
:1008F00098471034AC42F6D3FFF71EFCD8440008EA
:10090000F8440008202A04DB203A21FA02F00021F2
:10091000704721FA02F3D040C2F12002914008430F
:10092000194670470A48806940F0100008498861FC
:100930000848006820F070400649086008460068D2
:1009400040F04050086000200349086070470000F4
:1009500000100240001001409C01224210B500210D
:100960000AE0002205E0002300E05B1C642BFCD3BE
:10097000521C642AF7D3491C8142F2D310BD0021D6
:1009800005E0002200E0521C0A2AFCD3491C8142E7
:10099000F7D3704710B509A1094801F0A5FC642000
:1009A00002F082F905A1064801F09EFC642002F0E5
:1009B0007BF904A000F040F910BD00002B2B2B00A8
:1009C0000044004041540D0A000000002DE9F043AE
:1009D00099B005460E4617469846DDF880900024EB
:1009E00042A000F029F918B1012019B0BDE8F08348
:1009F00040A000F021F908B10320F6E741A000F083
:100A00001BF94FF47A7002F04FF94FF47A7002F04C
:100A10004BF94FF47A7002F047F900240EE03346A8
:100A20002A463BA1684601F07DFC3FA241F2883195
:100A3000684600F04DF900B902E0641C142CEEDBAE
:100A400000BF142C04DB3BA001F05CFC0620CCE7CB
:100A50003EA000F0F1F808B10720C6E700240FE03F
:100A600043463A463DA1684601F05CFC684600F00A
:100A7000E3F800B906E04FF47A7002F015F9641C4F
:100A8000032CEDDB00BF032C04DB3BA001F03AFCA0
:100A90000820AAE7B9F1000F12D03CA000F0CCF872
:100AA00008B10920A1E73DA000F0C6F808B10A206E
:100AB0009BE73EA13E48FFF76BFB08B90B2094E78C
:100AC0003CA001F01FFC294641A001F01BFC31466F
:100AD00046A001F017FC41464BA001F013FC39463B
:100AE0004FA001F00FFC00207FE7000041540D0AE9
:100AF0000000000041542B43574D4F44453D310DFC
:100B00000A00000041542B5253540D0A000000000B
:100B100041542B43574A41503D222573222C222514
:100B200073220D0A000000005749464920474F54E0
:100B30002049500057494649C8C8B5E3C1ACBDD3A8
:100B4000B2BBC9CF2E2E2E0D0A00000041542B43FC
:100B500049504D55583D300D0A00000041542B437B
:100B6000495053544152543D22544350222C222583
:100B700073222C25640D0A00B7FECEF1C6F7C1AC76
:100B8000BDD3B2BBC9CF2E2E2E0D0A0041542B432C
:100B900049504D4F44453D310D0A000041542B430F
:100BA000495053454E440D0A000000003E0000002D
:100BB000A000002057494649C4A3CABD3A53544136
:100BC0002B544350BFCDBBA7B6CB0D0A000000008D
:100BD000436F6E6E6563745F57494649C8C8B5E395
:100BE000C3FBB3C63A25730D0A000000436F6E6E57
:100BF0006563745F57494649C8C8B5E3C3DCC2EBB7
:100C00003A25730D0A000000544350B7FECEF1C6DA
:100C1000F7B6CBBFDABAC53A25640D0A000000006A
:100C2000544350B7FECEF1C6F74950B5D8D6B73ABF
:100C300025730D0A0000000070B5044600201D4910
:100C400008701D49086000252FE000201949087030
:100C5000194908604FF480611848FFF78EFA214661
:100C6000174801F041FB00261BE0642002F01CF84D
:100C70001048007898B1002010490F4A1268885433
:100C80000C4908700C4908600C490EA001F03AFBB1
:100C90000EA10A48FFF77CFA08B1002070BD701C55
:100CA000C6B20A2EE1DB681CC5B2052DCDDB0120E2
:100CB000F4E700000C00002008000020A000002045
:100CC0000044004025730D0A000000004F4B000057
:100CD0002DE9F04104460D461646002738E0002075
:100CE0001D4908701D4908604FF480611C48FFF7DA
:100CF00044FA21461B4801F0F7FA4FF0000823E0C0
:100D0000284601F0D1FF14480078D8B100201449DA
:100D1000124A126888541049087010490860104936
:100D200011A001F0EFFA31460D48FFF731FA10B18A
:100D30000020BDE8F0810FA10948FFF729FA08B1AA
:100D40000020F6E708F10108B8F10A0FD8D37F1C9C
:100D5000052FC4D30120ECE70C0000200800002080
:100D6000A000002000440040574946493A2025731E
:100D70000D0A00004F4B00002DE9F84F044689464C
:100D800093469A460A9D009447E02878802840DAE6
:100D900095F80080B8F10D0F05D1009C09F1100005
:100DA0001FFA80F933E0B8F1200F04DDA8F120002C
:100DB0001FFA80F801E04FF00008002622E000272B
:100DC0001CE006EB08101749085C802139410840F7
:100DD00040B109EB060291B2E21990B25A4600F016
:100DE00023F809E0D34507D009EB060291B2E219D6
:100DF00090B2524600F018F8781CC7B2082FE0DB1A
:100E0000701CC6B2102EDADB04F1080084B26D1C2F
:100E100003E0AD1C04F1100084B228780028B4D19E
:100E2000BDE8F88FE63E000870B504460D4616464C
:100E3000681C83B2601C82B22946204600F0FEFD89
:100E4000304600F06DFC70BD10B5002416480068F7
:100E500020F07040144908600846006840F00040E7
:100E600008600120114908600220FFF788FD00207A
:100E70000F49C1F898010220FFF781FD01200B49BD
:100E8000091F086005E0601CC4B2FA2C01DD0120D6
:100E900010BD0648803800680028F4D10349091FB6
:100EA000086000BFF4E70000000801409C012142F7
:100EB000000021420C48806940F004000A49886122
:100EC0000A48006820F07F4008490860084600682A
:100ED00040F04C50086005480C30006840F0C000FD
:100EE00002490C31086070470010024000080140C0
:100EF00070B51548006820F0704013490860084636
:100F0000006840F000400860002516E000200F490E
:100F100008600220FFF733FD01200D49C1F8980158
:100F20006006040E09487C38006808B144F00104EA
:100F30000220FFF724FD681CC5B2082DE6DB002067
:100F400002490860204670BD000801409801214216
:100F50000000214210B504461248006820F070409D
:100F6000104908600846006840F0405008600020C2
:100F70000D4908601CB10120091D086003E0002034
:100F80000949091D08600220FFF7F9FC0120064904
:100F900008600220FFF7F3FC00200449C1F8980123
:100FA00010BD0000000801409801214200002142CC
:100FB00010B50F48006820F070400D4908600846E1
:100FC000006840F04050086001200A4908600A4962
:100FD000C1F898010420FFF7D2FC00200549086001
:100FE0000420FFF7CCFC00200349C1F8980110BD94
:100FF000000801409C0121420000214210B5104828
:10100000006820F070400E4908600846006840F013
:101010004050086000200B4908600B49C1F8980156
:101020000420FFF7ACFC01200649091F08600420DA
:10103000FFF7A5FC01200449C1F89C0110BD000088
:10104000000801409C0121420000214270B5044685
:101050001748006820F0704015490860084600688D
:1010600040F04050086000201249086000251CE054
:1010700004F0800020B101200E49091D086003E042
:1010800000200C49091D086001200A49086002205F
:10109000FFF775FC00200849C1F898010220FFF70E
:1010A0006EFC6006040E681CC5B2082DE0DB70BD46
:1010B00000080140980121420000214201464906F2
:1010C000084A926942F00102064B9A61064A526848
:1010D00022F0E062044B5A601A4652680A435A6092
:1010E0007047000000100240000001401C48806969
:1010F00040F004001A4988610846806940F01000F9
:1011000088611848006820F00F00164908600846FA
:10111000006840F008000860081D006820F070407A
:10112000091D08600846006840F0004008600E484D
:10113000006820F470000C4908600846006840F41C
:10114000000008600846C06840F02000C8600548FC
:101150000C30006840F4004002490C3108607047D0
:1011600000100240000801400010014010B51A486C
:10117000006860B1322001F097FD1748006830B177
:1011800000BF154800680028FBD1012010BD13489E
:10119000006860B9322001F087FD1048006830B95E
:1011A00000BF0E4800680028FBD00220EEE70A4886
:1011B0003C30006870B9322001F076FD06483C30C2
:1011C000006838B900BF04483C3000680028FAD0F5
:1011D0000320DBE70020D9E700012142140122426D
:1011E0001948806940F008001749886108468069FD
:1011F00040F0100088611548006820F070401349E5
:1012000008600846006840F040500860081D00680B
:101210004FF20F0188430D49091D08600846006818
:1012200043F2030108430949091D08600848406862
:101230006FF30B00064948600846406840F23331BE
:10124000084303494860704700100240000C014009
:10125000001001401CB5002000F0B4FA00204FF649
:10126000FF71AD4B1022CDE90010022100F020FAF1
:1012700000204FF6FF71A84B20331022CDE900105B
:101280000221104600F014FA00204FF6FF71A24B25
:1012900040331022CDE900100221202000F008FA8E
:1012A00000204FF6FF719C4B60331022CDE90010F7
:1012B0000221302000F0FCF900204FF6FF71964B20
:1012C00080331022CDE900100221402000F0F0F917
:1012D00000204FF6FF71904BA0331022CDE9001093
:1012E0000221502000F0E4F900204FF6FF718A4BF4
:1012F000C0331022CDE900100221602000F0D8F99F
:1013000000204FF6FF71844BE0331022CDE900102E
:101310000221702000F0CCF900204FF478417F4B7F
:101320001022CDE90010222100F0C2F900204FF474
:1013300078417A4B20331022CDE90010222110464B
:1013400000F0B6F900204FF47841744B403310227E
:10135000CDE900102221202000F0AAF900204FF44E
:1013600078416E4B60331022CDE9001022213020ED
:1013700000F09EF900204FF47841684B8033102232
:10138000CDE90010322100F093F900204FF47841AC
:10139000624BA0331022CDE900103221104600F03C
:1013A00087F900204FF478415C4BC0331022CDE91F
:1013B00000103221202000F07BF900204FF478410A
:1013C000564BE0331022CDE900103221302000F0DE
:1013D0006FF900204FF47841514B1022CDE90010F5
:1013E000422100F065F900204FF478414C4B203346
:1013F0001022CDE900104221104600F059F90020DA
:101400004FF47841464B40331022CDE90010422181
:10141000202000F04DF900204FF47841404B60331C
:101420001022CDE900104221302000F041F90020C7
:101430004FF478413A4B80331022CDE9001052210D
:1014400000F036F900204FF47841354BA0331022DC
:10145000CDE900105221104600F02AF900204FF487
:1014600078412F4BC0331022CDE9001052212020AB
:1014700000F01EF900204FF47841294BE033102290
:10148000CDE900105221302000F012F900204FF475
:101490007841244B1022CDE90010622100F008F9B8
:1014A00000204FF478411F4B20331022CDE900106B
:1014B0006221104600F0FCF800204FF47841194BEF
:1014C00040331022CDE900106221202000F0F0F816
:1014D00000204FF47841134B60331022CDE9001007
:1014E0006221302000F0E4F800204FF478410D4BE9
:1014F00080331022CDE90010722100F0D9F80020CD
:101500004FF47841074BA0331022CDE9001072212F
:10151000104600F0CDF81CBDE6370008E63800089C
:10152000E6390008E63A00081CB5002000F04AF948
:1015300000204FF6FF715C4B1022CDE90010022114
:1015400000F0B6F800204FF6FF71574B2033102201
:10155000CDE900100221104600F0AAF800204FF655
:10156000FF71514B40331022CDE9001002212020A1
:1015700000F09EF800204FF6FF714B4B60331022B5
:10158000CDE900100221302000F092F800204FF643
:10159000FF71454B80331022CDE90010022140201D
:1015A00000F086F800204FF6FF713F4BA033102269
:1015B000CDE900100221502000F07AF800204FF60B
:1015C000FF71394BC0331022CDE900100221602099
:1015D00000F06EF800204FF6FF71334BE03310221D
:1015E000CDE900100221702000F062F800204FF4D5
:1015F00078412E4B1022CDE90010222100F058F83E
:1016000000204FF47841294B20331022CDE90010FF
:101610002221104600F04CF800204FF47841234B73
:1016200040331022CDE900102221202000F040F8A4
:1016300000204FF478411D4B60331022CDE900109B
:101640002221302000F034F800204FF47841174B6D
:1016500080331022CDE90010522100F029F800203B
:101660004FF47841114BA0331022CDE900105221E4
:10167000104600F01DF800204FF478410B4BC033AA
:101680001022CDE900105221202000F011F8002096
:101690004FF47841054BE0331022CDE90010522180
:1016A000302000F005F81CBDE6370008A63B000816
:1016B0002DE9F84F04460D4616461F46A24606FB86
:1016C00006F0C00800904FF0000824E017F801BBB6
:1016D0004FF0000914E00BF0800028B1A9B2A0B2CD
:1016E0000A9AFFF7A1FB04E0A9B2A0B20B9AFFF798
:1016F0009BFB641C4FEA4B604FEA106B09F1010938
:10170000B9F1080FE7D3A4EB0A00B04201D16D1C78
:10171000544608F1010800988045D7D3BDE8F88FFA
:1017200010B504464FF48070084908608020091FF6
:101730000860201200F08EFAE0B200F08BFA4FF44D
:1017400080700249091F086010BD0000140C0140A0
:101750001948806940F0040017498861084680698B
:1017600040F0200088611548006820F00F00134900
:1017700008600846006840F00300086010480068F0
:101780006FF4706108400E4908600846006840F434
:101790004070086009480830006840F480700749CC
:1017A0000831086006480C30006840F00400044925
:1017B0000C3108607047000000100240040801402E
:1017C0000014014070B506469F237F220021084681
:1017D00000F034F92C2000F071F9002408E0002515
:1017E00003E03046FFF79CFF6D1CA02DF9D3641C6D
:1017F000802CF4D370BD10B5FFF7F2FC00F00CF9AB
:10180000112000F05BF9782001F04EFAB12000F0D1
:1018100055F9012000F03EF92C2000F03BF92D2075
:1018200000F038F9B22000F049F9012000F032F957
:101830002C2000F02FF92D2000F02CF9B32000F01F
:101840003DF9012000F026F92C2000F023F92D208D
:1018500000F020F9012000F01DF92C2000F01AF909
:101860002D2000F017F9B42000F028F9072000F02F
:1018700011F9C02000F022F9A22000F00BF902209B
:1018800000F008F9842000F005F9C12000F016F9F5
:10189000C52000F0FFF8C22000F010F90A2000F087
:1018A000F9F8002000F0F6F8C32000F007F98A20CC
:1018B00000F0F0F82A2000F0EDF8C42000F0FEF867
:1018C0008A2000F0E7F8EE2000F0E4F8C52000F0F0
:1018D000F5F80E2000F0DEF8362000F0EFF8C82012
:1018E00000F0D8F8E02000F0E9F80F2000F0D2F87E
:1018F0001A2000F0CFF80F2000F0CCF8182000F0EC
:10190000C9F82F2000F0C6F8282000F0C3F82020E6
:1019100000F0C0F8222000F0BDF81F2000F0BAF857
:101920001B2000F0B7F8232000F0B4F8372000F0B7
:10193000B1F8002000F0AEF8072000F0ABF802206C
:1019400000F0A8F8102000F0A5F8E12000F0B6F8AB
:101950000F2000F09FF81B2000F09CF80F2000F0F3
:1019600099F8172000F096F8332000F093F82C2017
:1019700000F090F8292000F08DF82E2000F08AF871
:10198000302000F087F8302000F084F8392000F093
:1019900081F83F2000F07EF8002000F07BF807205F
:1019A00000F078F8032000F075F8102000F072F8CD
:1019B0002A2000F083F8002000F06CF8002000F0EE
:1019C00069F8002000F066F87F2000F063F82B2013
:1019D00000F074F8002000F05DF8002000F05AF8E4
:1019E000002000F057F89F2000F054F8F02000F09D
:1019F00065F8012000F04EF8F62000F05FF80020B6
:101A000000F048F83A2000F059F8052000F042F8BC
:101A1000292000F053F810BD10B54FF4806006493E
:101A20004861642001F040F94FF480600249086188
:101A3000322001F039F910BD00100140F0B5044624
:101A40000D4616461F462A2000F038F8002000F008
:101A500021F8A11CC8B200F01DF8002000F01AF80F
:101A6000B11CC8B200F016F82B2000F027F80020B7
:101A700000F010F8691CC8B200F00CF8002000F06B
:101A800009F8791CC8B200F005F82C2000F016F80F
:101A9000F0BD000010B504464FF4807006490860A0
:101AA0008020091F0860204600F0D4F84FF48070B1
:101AB0000149091F086010BD140C014010B504460F
:101AC0004FF480700649086080200860204600F0CE
:101AD000C1F84FF480700249091F086010BD000072
:101AE000140C014010B5FFF7E5F91048006820F02C
:101AF00070400E4908600846006840F04050086099
:101B000001200B4908600B49C1F89C010A20FEF72F
:101B100036FF0020064908604FF47A70FEF72FFF69
:101B200001200449C1F8980110BD000000080140DF
:101B3000980121420000214270B5002401220021B9
:101B4000842001F083F8054600BF04E0295D364893
:101B500000F0C2FB641C0A2CF8DB4FF4FA6001F0C1
:101B6000A3F83248007818B33148006808B901205A
:101B700000E000202E4908602EA000F0C3FB0024E6
:101B800005E02F48015D2FA000F0BCFB641C2F482E
:101B900000688442F5D32EA000F0B4FB4FF48061BE
:101BA0002748FEF7EAFA0020284908601F49087014
:101BB00001220021802001F049F80546002404E0BC
:101BC000295D194800F088FB641C0A2CF8DB4FF4EF
:101BD000FA6001F069F81548007818B314480068F5
:101BE00008B9012000E000201149086011A000F0B0
:101BF00089FB002405E01248015D12A000F082FB81
:101C0000641C124800688442F5D311A000F07AFBEE
:101C10004FF480610A48FEF7B0FA00200B490860D3
:101C20000249087070BD0000004800401400002008
:101C3000888122425553415254333A0D0A00000024
:101C4000A0040020252378200000000010000020C0
:101C50000D0A00000021082114E000F0800222B1EA
:101C60004FF40072094B1A6103E04FF40072074B06
:101C70005A614FF48072054B5A611A614206100E88
:101C80004A1ED1B20029E8DC704700000010014074
:101C90002DE9F0470C46154605210E462D4F3A68B2
:101CA0004FF6FF073A402C4F174347EA0622294FC9
:101CB0003A6000BF26462F460A46C2F10709B9F12D
:101CC000040F02D94FF0040901E0C2F10709C84628
:101CD00002F10409B9F1070F02D24FF0000901E047
:101CE000A2F10309CC464FF0010909FA08F9A9F15C
:101CF000010909EA060909FA0CF94FF0010A0AFA82
:101D00000CFAAAF1010A0AEA070A49EA0A0300BF23
:101D100002461946002A0ADA0E074FEA166C0D4EE3
:101D20000C3602F00F073F1F06F807C003E00E074E
:101D3000370E0A4EB75400BF00BF00F01F0201214A
:101D400091404209920002F1E022C2F8001100BF66
:101D5000BDE8F0870CED00E00000FA0500E400E0CB
:101D600010B500F001F810BD0CB5002001900090F6
:101D70003348006840F480303149086000BF304883
:101D8000006800F4003000900198401C0190009819
:101D900018B90198B0F5A06FF1D12948006800F496
:101DA000003010B10120009001E000200090009868
:101DB000012843D12348006840F010002149086001
:101DC0000846006820F0030008600846006840F0FC
:101DD000020008601A48406819494860084640688F
:101DE00048600846406840F48060486008464068A3
:101DF00020F47C1048600846406840F4E8104860D1
:101E00000846006840F08070086000BF0C48006819
:101E100000F000700028F9D00948406820F0030065
:101E2000074948600846406840F00200486000BF2B
:101E30000348406800F00C000828F9D10CBD0000F0
:101E400000100240002002407047000010B5134807
:101E5000006840F0010011490860084640681049D8
:101E600008400E494860084600680E4908400B4982
:101E700008600846006820F4802008600846406832
:101E800020F4FE0048604FF41F008860FFF768FFF1
:101E90004FF000600449086010BD000000100240CF
:101EA0000000FFF8FFFFF6FE08ED00E002480088A2
:101EB0000020014908807047102C01404FF08040FD
:101EC000008A00F0010088B14FF08040008A20F0C5
:101ED00001004FF080410882012005490870800709
:101EE000008820F001004FF080410880704700001A
:101EF0000C0000200B48008800F0010080B1094868
:101F0000008820F001000749088001200649087078
:101F100004481038008820F0010002491039088078
:101F2000704700001004004014000020054800889D
:101F300000F0010028B10348008820F001000149A9
:101F4000088070471008004070B505460C460F48E1
:101F5000C06940F001000D49C8610846006940F0C1
:101F6000010008610846006920F001000861681E50
:101F70008904088508468485808940F001008881AD
:101F8000012211461C20FFF783FE70BD00100240A5
:101F900070B505460C461148C06940F002000F4973
:101FA000C8610846006940F00200086108460069FF
:101FB00020F002000861681E09490880081D04809D
:101FC00007481C38008840F0010005491C3908808A
:101FD000012211461D20FFF75BFE70BD001002407C
:101FE000280400401249098801F02001F1B10021C4
:101FF000104A11800F492439098841F001010D4A26
:10200000243A11800A49091D0988C8B20A49096899
:10201000642908D208490A680968491C064B1960F6
:102020000649885402E00121054A117070470000FA
:1020300000380140242C0140000000203C0000201A
:102040000400002010B504462148806940F4804017
:102050001F4988610846806940F00400886108468D
:10206000C06840F48040C8600846C06820F48040E2
:10207000C8601848006820F47F6016490860084668
:10208000006840F40B6008601348B0FBF4F013499B
:102090000880081D008840F02000091D08800122EA
:1020A00011462520FFF7F4FD0C48001D008840F084
:1020B00004000A49091D08800846008840F008000D
:1020C00008800846008840F40050088010BD0000D9
:1020D000001002400408014000A24A0408380140F0
:1020E0001149098801F02001E9B100214FF0804237
:1020F00091841146098841F0010111800A49091DA6
:102100000988C8B209490968B1F5806F08D2074942
:102110000A680968491C054B19600549885402E0A2
:102120000121044A1170704700440040080000205B
:10213000A00000200C00002010B504462148C06912
:1021400040F400301F49C8610846806940F004002F
:1021500088610846006940F400300861084600695B
:1021600020F4003008611848006820F47F401649C8
:1021700008600846006840F40B4008601348B0FB54
:10218000F4F013490880081D008840F02000091D64
:102190000880012211462620FFF77AFD0C48001D19
:1021A000008840F004000A49091D0880084600889C
:1021B00040F0080008800846008840F4005008807D
:1021C00010BD00000010024000080140005125022F
:1021D000084400401449098801F0200111B300218E
:1021E000124A118011492439098841F001010F4A2E
:1021F000243A11800C49091D0988C8B20C49097894
:1022000081B90C490968B1F5806F08D209490A689B
:102210000968491C074B19600749885402E00121ED
:10222000034A117070470000004800402404004039
:102230001400002010000020A004002010B5044667
:102240002148C06940F480201F49C8610846806960
:1022500040F0080088610846006940F48020086169
:102260000846006920F4802008611848006820F4BE
:102270007F40164908600846006840F40B4008603B
:102280001348B0FBF4F013490880081D008840F0A3
:102290002000091D0880012211462720FFF7F8FCC5
:1022A0000C48001D008840F004000A49091D088000
:1022B0000846008840F0080008800846008840F47E
:1022C0000050088010BD000000100240040C0140C6
:1022D0000051250208480040818000BF028802F0BA
:1022E0008002002AFAD0704708E011F8012B8280A2
:1022F00000BF028802F08002002AFAD00A78002A81
:10230000F3D170470FB4054B10B503A9044A0298E6
:1023100000F0EEF810BC5DF814FB0000CD2C0008B6
:10232000380000200FB4084B10B504A902AA039886
:1023300000F0DEF8044602A9002000F05CFC204614
:1023400010BC5DF814FB0000F72B000802E008C881
:10235000121F08C1002AFAD170477047002001E01F
:1023600001C1121F002AFBD1704700002DE9FF5F59
:1023700082B00021DDE90430020DDDF840B00343F6
:1023800018D044F61050A2F2FF32424315141198AF
:1023900001281FD0A5EB0B00401C5FEA000A4FF09C
:1023A00000064E4FDFF83891B046504615D5CAF1B9
:1023B000000413E0119801244AA3012801D16FEA17
:1023C0000B010298119AC0E90031C0E9024206B03F
:1023D000BDE8F09FCBF10000DFE704460021404A52
:1023E000491842EB0450CDE9001012E0E00707D095
:1023F00032463B4640464946FEF719F88046894634
:1024000032463B4610461946FEF711F806460F467F
:102410006410002CEAD1DDE90401DDE90023BAF102
:10242000000F06DAFEF703F842464B46FDF7FFFFC2
:1024300005E0FEF7B5F942464B46FEF7B1F9044612
:102440000E460022284BFEF733FA03D84FF0FF3038
:10245000014607E00022254B20463146FDF740FFAC
:10246000FEF70DFA102409E0002C0ADB0A220023F3
:10247000FEF7B0F8039B30321A55641E50EA010291
:10248000F2D1641C039AC4F111031444119A012A75
:1024900003D0012208430DD10AE0084304D00020F4
:1024A0004FF0110B119072E7A3EB0B056D1E0DE0C1
:1024B0005B4504DD4FF0000205F1010504E003DA9D
:1024C0004FF00002A5F10105002AECD00298119905
:1024D000C0E90231C0E9004579E70000000014407E
:1024E0000000F03F300000000000F0430000E03F3B
:1024F0002DE9FF4F95B09A46884606460025EEE145
:10250000252877D100242746F94A0121039400E0C9
:10251000044316F8013F203B01FA03F01042F7D1C3
:1025200030782A2811D06FF02F033078A0F13002D4
:10253000092A16D8039A44F0020402EB820203EB44
:1025400042021044761C0390EFE758F8042B0392E4
:10255000002A03DA504244F40054039044F0020489
:10256000761C30782E2816D116F8010F44F004049A
:102570002A280DD06FF02F023078A0F13003092BFC
:1025800009D807EB870302EB4303C718761CF3E770
:1025900058F8047B761C30786C280FD006DC4C2869
:1025A00017D068280DD06A2814D104E0742810D000
:1025B0007A280FD10DE044F400140AE044F48014AA
:1025C00001E044F440147278824202D104F5801490
:1025D000761C761C307866280BD013DC582877D010
:1025E00009DC002875D04528F6D04628F4D04728C5
:1025F0001AD193E118E0632835D0642879D0652892
:1026000012D18BE1702873D008DC6728F1D06928DB
:102610006FD06E280DD06F2806D1ACE073282CD077
:10262000752874D0782853D05246179990476D1C5E
:1026300054E1C4F30250022809D003280DD0D8F881
:10264000001004280DD00D6008F1040846E1D8F808
:102650000010EA17C1E90052F6E7D8F800100D8023
:10266000F2E70D70F0E718F8041B8DF80010002059
:102670008DF80100EB46012003E058F804BB4FF051
:10268000FF3061074FF0000102D40DE009F10101B4
:102690008946B9420FDA8145F8DB1BF80910002999
:1026A000F4D108E009F1010189468142FADB1BF807
:1026B00009100029F6D103985346A0EB09072146DB
:1026C0003846179A00F080FA284400EB090507E025
:1026D00044E008E10DE01BF8010B524617999047C2
:1026E000B9F10109F7D2534621463846179AF2E06C
:1026F00039E00A21C4F302524FF0000B0091022A84
:1027000006D058F8040BC117032A09D00AE023E0C9
:1027100008F1070020F00702F2E80201904605E008
:1027200000B2C117042A01D140B2C117002906DA4C
:102730000A460021404261EB02012D2202E02205FF
:1027400004D52B228DF80420012203E0E20701D0FA
:102750002022F7E7914657E00A2100E010214FF0D0
:10276000000B00910BE010214FF0000B44F004042B
:102770000827009103E008204FF0000B0090C4F3FD
:102780000252022A05D058F8040B0021032A08D06F
:1027900008E008F1070020F00702F2E80201904685
:1027A00003E080B2042A00D1C0B24FF00009220732
:1027B0002AD53278702A07D0DDF800C08CF0100CD2
:1027C0005CEA0B0C05D00EE040228DF804200122BB
:1027D00008E050EA010306D030238DF804308DF86C
:1027E000052002229146009B83F0080353EA0B0365
:1027F0000AD150EA010201D1620705D530228DF8D5
:1028000004204FF001097F1E3278582A04D039A2E3
:102810000C920CAA02920BE03BA2F9E75B46009AED
:10282000FDF7D8FE0C9B9B5C029A521E029213701D
:1028300050EA0102F2D1029804A9081A00F1200B13
:10284000600702D524F4803400E001275F4502DDF3
:10285000A7EB0B0000E0002000EB0B0100900398B9
:102860004944401A0390E00306D453462146179A80
:10287000039800F0A9F90544002706E001A8524694
:10288000C05D179990476D1C7F1C4F45F6DBE00338
:102890000CD553462146179A039800F095F9054444
:1028A00004E030205246179990476D1C0099481E4D
:1028B00000900029F5DC08E0029802995246007861
:1028C000491C0291179990476D1CBBF10001ABF1B7
:1028D000010BF1DC5BE100F065F90544761C307812
:1028E00000287FF40DAE19B02846BDE8F08F000037
:1028F00009280100303132333435363738396162D6
:102900006364656600000000303132333435363799
:10291000383941424344454600000000600700D476
:10292000062708F1070020F00700F0E802238046A0
:1029300003F0004C5FEA0C0001D097A009E02005ED
:1029400001D596A005E0E00701D095A001E0AFF227
:102950004C001390307823F0004365280CD006DC3F
:10296000452809D046281DD047287FD13BE066285E
:1029700018D067287AD136E00021112F01DB112011
:1029800000E0781CCDE9000104A90CA8FFF7EEFCDB
:10299000DDE90D010C9A4FF0000B07F101091092CF
:1029A00000914EE04FF000400097CDE9011004A9DE
:1029B0000CA8FFF7DBFCDDE90D020C9B0F994FF033
:1029C000000B91461093009211B9791C00EB01099C
:1029D000B7EB090003D4C0F1FF3B07F10109A9EBF4
:1029E0000700019042E0012F00DA01270021112F9A
:1029F00001DD112000E03846CDE9000104A90CA852
:102A0000FFF7B4FCDDE90D010C9A00914FF0000BCB
:102A1000B946109221070FD4009A4A4503DA91462D
:102A200001E0A9F10109B9F1010F05DD109AA9F141
:102A30000101515C3029F4D0B84202DA10F1040FE0
:102A400003DA0121CDE9011010E0002803DC834402
:102A5000A9EB000102E0411C494500DD8946A0EBDD
:102A60000B00401C01904FF000400290200705D45D
:102A70000198484502DB4FF0FF30019000208DF8AF
:102A80004B0002980DF14B07B0F1004F25D002200A
:102A90000C902B200D90029800280CDA40420290F6
:102AA0002D200D9007E00A210298FDF77DFD3031C1
:102AB000029007F8011D0C99481E0C900029F2DCC9
:102AC00002980028EFD1791E0D980870307800F038
:102AD000200040F0450007F8020D11A8C01BC01DE2
:102AE00002901398007800B1012000EB09010198D1
:102AF00001EBE071029801440398401A401E0390D4
:102B0000E00306D453462146179A039800F05CF878
:102B100005441398007818B15246179990476D1CD8
:102B2000E00323D553462146179A039800F04CF84A
:102B300005441BE0BBF1000F07DB0098584504DD9E
:102B40001098179910F80B0001E0179930205246A1
:102B5000904701980BF1010B401E05F10105019012
:102B600004D12E205246179990476D1CB9F10001EF
:102B7000A9F10109DEDC05E017F8010B52461799AF
:102B800090476D1C0299481E02900029F4DC5346C0
:102B90002146179A03989EE62D0000002B000000A6
:102BA000200000002DE9F041044600251E4617468E
:102BB000880404D405E039462020B0476D1C641E0B
:102BC000F9D52846BDE8F0812DE9F04104460025FD
:102BD0001E469046C80301D5302700E02027880410
:102BE00004D505E041463846B0476D1C641EF9D552
:102BF0002846BDE8F0810A68531C0B6010707047CE
:102C000030B595B0002405E000F07AFD01A941F847
:102C10002400641C142CF7DB142101A800F0BCFD77
:102C20000025002407E001A850F824102846FDF7ED
:102C3000C1FA0546641C032CF5DB03492846FDF761
:102C400011FB15B030BD00000000404030B5034618
:102C50005320144D28705920687028468370C17025
:102C600000202871012068712846827100786D78F3
:102C700028440C4DAD7828440A4DED782844094D80
:102C80002D792844074D6D792844064DAD792844A7
:102C9000C4B20448C4715420024D287243206872A3
:102CA000284630BD940A002010B500210AE0002219
:102CB00005E0002300E05B1C642BFCD3521C642A5B
:102CC000F7D3491C8142F2D310BD0000054B188098
:102CD00000BF044A121F128802F08002002AF8D0B6
:102CE000704700000438014088B00220FEF7E6F982
:102CF0000025A946AA46AB4600264FF4E130FFF76F
:102D0000A1F9FDA0FFF7FEFAFEF722FDFDF70AFE8E
:102D1000FEF7ECF9FEF76FFD0020FEF753FD4FF4D0
:102D20000060FA4908604FF4E130FFF705FA44F615
:102D300020614820FFF708F944F620614820FFF79A
:102D400027F94FF4E130FFF779FAFEF7F5FEFEF7C9
:102D5000C9FE0120EE4908606420FFF7A5FF0020AE
:102D6000EC49C1F89C01FEF72DFDEBA000234FF6C6
:102D7000FF72022100901846FDF7FEFF00241EE0BE
:102D8000FDF708FE58B9E8A000234FF6FF720221B4
:102D900000901846FDF7F0FF4FF0010A11E0E5A0A2
:102DA00000234FF6FF72022100901846FDF7E4FF62
:102DB0004FF0000AE3A0FFF7A5FA601CC4B20A2C8A
:102DC000DEDB00BFBAF1000F5AD0E4A000234FF6BB
:102DD000FF72122100901846FDF7CEFFE3A0FFF727
:102DE00091FAEFA2F1A1F2A0FFF78CFAEFA0002375
:102DF0004FF6FF72222100901846FDF7BDFFE8A0B4
:102E000000234FF6FF72322100901846FDF7B4FF01
:102E100000BF012042F2B823EDA2E1A10090E3A09F
:102E2000FDF7D4FD8246BAF1000F0FD0EBA0FFF7FB
:102E300069FAF1A0FFF766FAFCA000234FF6FF72D3
:102E4000422100901846FDF797FFE2E7FBA0002320
:102E50004FF6FF72422100901846FDF78DFFFBA050
:102E6000FFF750FA4FF47A70FFF71EFF4FF47A70B5
:102E7000FFF71AFF4FF47A70FFF716FF4FF0010BC0
:102E8000FEF7E8F90120A24908604FF4FA70FFF755
:102E90000BFF00209F49C1F89C014FF4FA70FFF727
:102EA00003FF01209A4908604FF4FA70FFF7FCFE17
:102EB00000209849C1F89C01ABE3FEF757F905469D
:102EC0001DB12946E8A0FFF71DFA55B10EB9012042
:102ED00000E00020064616B9FEF7BCF901E0FEF757
:102EE00023FBB9F1C80F7DD94FF00009FFF788FE29
:102EF000E0490860E049DF480068FDF74BFB02D27B
:102F0000DE48DC490860002E6DD1DD480068642889
:102F100002DD0020DA490860D948DAA10268DA48FF
:102F2000FFF700FAD84800234FF6FF7222210090E5
:102F30005020FDF721FFD5480068642802DD0020FD
:102F4000D2490860D148CFA10268CF48FFF7EAF91B
:102F5000CD4800234FF6FF72322100905020FDF73C
:102F60000BFFCB480068B8B100204FF6FF71C94B8A
:102F70001022CDE9001042215020FEF799FB0020DD
:102F80004FF6FF71C34B20331022CDE900104221D0
:102F90006020FEF78DFB17E000204FF6FF71BD4B60
:102FA00040331022CDE9001042215020FEF780FB73
:102FB00000204FF6FF71B74B60331022CDE90010AF
:102FC00042216020FEF774FBB3480068D8B10020AE
:102FD0004FF6FF71AF4B80331022CDE90010522124
:102FE000502001E0FFE15AE0FEF762FB00204FF6BF
:102FF000FF71A84BA0331022CDE9001052216020B0
:10300000FEF756FB17E000204FF6FF71A14BC033CF
:103010001022CDE9001052215020FEF749FB00207C
:103020004FF6FF719B4BE0331022CDE90010522187
:103030006020FEF73DFB99480068642802DD00200F
:103040009649086095488FA102688F48FFF76AF992
:103050008D4800234FF6FF72622100905020FDF74B
:103060008BFE84480068FDF765FA07463A460B4632
:103070008BA18548FFF756F9834800234FF6FF726E
:10308000722100905020FDF777FE87A000234FF6B5
:10309000FF72722100907020FDF76EFE5BE18348A5
:1030A00078A102687848FFF73DF9774800234FF68A
:1030B000FF72222100905020FDF75EFE7C480068E0
:1030C000C0B900204FF6FF71724B80331022CDE95A
:1030D000001052215020FEF7EBFA00204FF6FF714E
:1030E0006C4BA0331022CDE9001052216020FEF776
:1030F000DFFA30E1DEE00000B4AEBFDA31B3F5CA8A
:10310000BCBBAFB3C9B9A62E2E0D0A00100C0140EE
:103110009C012242000022425749464920496E69DB
:10312000742E2E2E0000000057494649204F4B2E8A
:103130002E2E000057494649204552524F522E2EFE
:103140002E00000045535038323636D3B2BCFEBC98
:10315000ECB2E2B4EDCEF32E0A000000436F6E6EC7
:1031600065637420574946492E2E2E00455350382A
:10317000323636D3B2BCFED5FDB3A3A1A3D7BCB1C2
:10318000B8C1ACBDD357494649C8C8B5E328B1D882
:10319000D0EB322E3447485A292E2E2E2E0D0A00FF
:1031A000313233343536373800000000717765002E
:1031B000D7BCB1B8C1ACBDD3C8C8B5E3C3FBB3C6B7
:1031C0003A25732020C3DCC2EB3A25730D0A0000B8
:1031D0003137322E32302E31302E3900C8C8B5E3A7
:1031E000C1ACBDD3CAA7B0DC3AD5FDD4DAD6D8CAB3
:1031F000D42E2E2E0D0A0000D7A2D2E23A2045533B
:103200005038323636D6BBD6A7B3D6322E344748DE
:103210005AC6B5B6CEB5C4576946692E20B9A9B508
:10322000E7D2AACEC8B6A82E0D0A0000436F6E6E74
:10323000656374204572726F722E2E00436F6E6E3E
:103240006563742053756363657373004553503829
:10325000323636B3C9B9A6C1ACBDD3C9CFC8C8B51B
:10326000E32E2E2E0D0A00006B65793D25640D0AB4
:1032700000000000340000200000C8423333114237
:103280001800002025346400A00800201C00002045
:1032900020000020A63C0008240000202800002078
:1032A00025342E3166000000430000002C00002071
:1032B00030000020D7480068012817D100204FF6C1
:1032C000FF71D54B1022CDE9001052215020FEF79E
:1032D000EFF900204FF6FF71CF4B20331022CDE9DC
:1032E000001052216020FEF7E3F934E0C94800687D
:1032F000022818D100204FF6FF71C74B403B102227
:10330000CDE9001052215020FEF7D2F900204FF6EF
:10331000FF71C14B203B1022CDE9001052216020EB
:10332000FEF7C6F917E000204FF6FF71BA4B4033A5
:103330001022CDE9001052215020FEF7B9F90020EB
:103340004FF6FF71B44B60331022CDE900105221CB
:103350006020FEF7ADF9B1480068822805DCB0496D
:10336000B0480068FDF716F903D20020AE490860A6
:1033700002E00120AC490860AA480068FDF7DAF8CD
:10338000CDE90601A3480068A8490968A84A12685F
:10339000A84B1B68CDE90132CDE90310A6480068AF
:1033A00000909E480368A548A5A10268AB48FEF7B7
:1033B000B9FFAA49AAA0FEF7A5FFBBF1000F07D0ED
:1033C000A649AB48FEF790FFAAA0FEF79BFF02E0DC
:1033D000AEA0FEF797FFB348006808B9012000E0EF
:1033E0000020B0490860B0480078002871D0AF488C
:1033F000006808B9012000E00020AC490860AC4832
:103400008379C2788178ABA0FEF77CFFA84800786A
:10341000532874D1A64840785928FAD1A448807816
:10342000072816D008DC01280FD002280ED0032868
:103430000DD0052809D10BE080280BD0812841D080
:1034400084285DD08528F5D194E0ADE0ACE0ABE018
:10345000AAE0A9E09648C078062831D2DFE800F05B
:10346000300313292E2F9248807910B1012808D1FA
:1034700003E000207049086003E001206E49086005
:1034800000BF00BF1CE08A48807920B1012806D027
:1034900002280CD107E000206649086007E0002000
:1034A0006449086003E001206249086000BF00BF72
:1034B00006E07F4880795E49086001E000E000BFD7
:1034C00000BF71E07A48C078012803D0022814D1E7
:1034D0000EE074E076488079012804D0022803D0F9
:1034E000032803D101E001E000E000BF00BF04E0D9
:1034F0006F4880795149086000BF00BF54E054E034
:103500006B48C078062833D2DFE800F032030D2381
:10351000282D6748807910B1012802D100E000E031
:1035200000BF00BF24E06248807920B1012806D0A6
:1035300002280CD107E000203649086007E001208E
:103540003449086003E002203249086000BF00BF30
:103550000EE0574880793549086009E05448807981
:103560003249086004E0524880793049086000BF61
:1035700000BF19E04E48C078022802D0052811D1BA
:103580000FE04B488079254908600846006800280C
:1035900003DD01202849086002E000202649086078
:1035A00000E000BF00BF00BF00BF4FF48061404893
:1035B000FCF7E3FD0020474908603B490870464896
:1035C000007808B300204549454A1268885445A050
:1035D000FEF798FE002406E04048015D47A0FEF794
:1035E00091FE601CC4B23E4800688442F4D326A019
:1035F000FEF788FE4FF480613848FCF7BEFD0020DE
:1036000037490860344908700A20FDF7A7F909F125
:10361000010952E430000020663E00081C00002032
:1036200000001842340000209C0122422C0000209F
:103630002800002024000020200000201800002086
:1036400025642C25642C25642C25642C25642C25CC
:10365000642C25642C252E3166000000A008002073
:103660006D6573736167653A2025730D0A0000006C
:1036700000440040544350B7FECEF1C6F7CAFDBE29
:10368000DDD2D1B8FCD0C22E0D0A00005749464900
:10369000CEB4C1ACBDD3CDF8C2E72D2D2D2D2E0D4E
:1036A0000A000000A001214214000020888122426B
:1036B000A0040020747970653A2523582020636D9A
:1036C000643A2523582020646174613A25235820E8
:1036D0000D0A0000100000200C000020A0000020B7
:1036E0000800002045535038323636BDD3CAD5B510
:1036F000BDD0C2CAFDBEDD3A0D0A00002563000040
:103700002DE9F84F4FF0000AFDF752FCB420FDF709
:103710009DFCFDF799FB0720FDF798FCFDF794FB56
:10372000FDF746FC0120FDF791FCFDF78DFB00BF86
:103730000AE0FDF7DDFB0DF80A000020FDF70AFCAA
:103740000AF1010000F0FF0ABAF1030FF1DB0120DA
:10375000FDF700FCFDF752FC9DF800109DF80120DC
:1037600041EA0220FCF7D5FE8046084A084BFCF7E8
:103770005EFE06464FF06632064BFCF752FE0446EC
:10378000FCF7EBFE83465846BDE8F88F7B14AE4746
:10379000E17A943F661271402DE9F04105460E46EC
:1037A000002716E000240FE0621C55F8221055F89F
:1037B0002400FCF7EFFE06D2621C05EB820105EB4C
:1037C000840000F00BF8641C701EC01BA042EBDCF0
:1037D0007F1C701EB842E5DCBDE8F08102680B6812
:1037E00003600A607047110815482548455097DE68
:1037F000102420146FD4A0142794249424A824C83F
:1038000024942814302200202020102013FE82222D
:1038100042244A200BFC12841288E24822502220C3
:1038200024502488090600003FF801007FFE410271
:103830009D7401001D7000003FF8210821083FF829
:10384000210821083FF8004020401040104007FEAA
:103850000040F04010A01090110812041404100051
:10386000280047FE000000100078F3C09040904010
:10387000F7FC92489248F7FE9248924897FCF04035
:10388000904007FC0000000001FC7D044504450455
:103890007DFC452045207DFE4520452045107D12BC
:1038A000454A0186010204402440247C244024909F
:1038B00024882508040000003FF8244824482448B0
:1038C0002448FFFE0000000427C414441454855407
:1038D00045544554155415542554E5542104228467
:1038E0002244241408080008003C7BE048204924B6
:1038F00048A448A848204BFE4820782048200020B3
:10390000002000A00040000007F879084910491085
:103910004920493C490449044A887A884A5004208D
:10392000045008880306100011FE50205C4051FC32
:103930005104FF2401241124552455245544845056
:1039400008883104C202020001007FFC02004444E6
:103950002F88111022484FE400200100FFFE0100D3
:10396000010001000100020001007FFE4002888486
:1039700004800480108008800880FFFE014002203F
:10398000041018086004000800087C08440845FE7C
:10399000440844087C0844884448444844087C0857
:1039A0004408002800100000020001000080008090
:1039B0000400040824042404240244024412841051
:1039C000041003F00000020001007FFC02004444E8
:1039D0002F88111022484FE400200100FFFE010053
:1039E00001000100010001000100010001000100CF
:1039F00001000280028004400440082008201010CA
:103A0000200840048002084008400840104017FC8D
:103A1000304030E050E091501150124815F41842F7
:103A2000104010401040002800243FFE20202FA40A
:103A300020242FA8289828924FAA4046808201006F
:103A40004884481287F2010000803FFE20002000D9
:103A50002104288424842448224822102210402053
:103A600040409FFE00000100010001000100010034
:103A70000100028002800440044008200820101049
:103A8000200840048002084008400840104017FC0D
:103A9000304030E050E091501150124815F4184277
:103AA000104010401040084008480844484428404E
:103AB0002FFE08400840184028A0C8A00890091010
:103AC00009080A040C02010001007FFC01000280C9
:103AD00004400A203118C0060100088848844812B2
:103AE000481287F00000084008400840104017FCCA
:103AF000304030E050E091501150124815F4184217
:103B0000104010401040004000407C40004001FC4C
:103B10000044FE4420442044208448844484FD041E
:103B2000450402280410100011FE10007CF854888F
:103B3000548854F8540055FC552455245DFC112438
:103B4000112411FC1104010000803FFE22202220DC
:103B50003FFC2220222023E020002FF024104220CE
:103B600041C08630380E084008400840104017FC1D
:103B7000304030E050E091501150124815F4184296
:103B8000104010401040000023F81208120883F87B
:103B90004208420813F8100027FCE4A424A424A43B
:103BA00024A42FFE000000100078F3C09040904045
:103BB000F7FC92489248F7FE9248924897FCF040F2
:103BC000904007FC0000000001FC7D044504450412
:103BD0007DFC452045207DFE4520452045107D1279
:103BE000454A01860102000800087C08440845FE99
:103BF000440844087C0844884448444844087C08F5
:103C00004408002800100800081008200840088018
:103C100009000800FFFE0A0009000880084009208A
:103C20000A180C06080000100078F3C0904090407D
:103C3000F7FC92489248F7FE9248924897FCF04071
:103C4000904007FC0000000001FC7D044504450491
:103C50007DFC452045207DFE4520452045107D12F8
:103C6000454A01860102007C3FC0204020403FFEC3
:103C70002040204027FC240424442444244424B429
:103C800041084604980200001FF010101FF01010A9
:103C9000FFFE00001FF011101FF011101FF00100B7
:103CA0001FF001007FFC02000200FFFE0400040080
:103CB0000FF0081018102FF0481088100FF008109F
:103CC0000810085008200100010001000100010057
:103CD00001000280028004400440082008201010E7
:103CE00020084004800200003FF0020002000200B1
:103CF00002007FFC04800480048008800880108417
:103D00002084407C800001000100010001000100CE
:103D100001000280028004400440082008201010A6
:103D20002008400480020010207813C0104080401A
:103D300047FE40401040104023F8E20822082208C5
:103D4000220823F8020800087C3C45E04420442077
:103D50007C2013FE10205C205050505050505C8846
:103D6000E0880104020210401040FE7810887C10A8
:103D700011FCFE2400247DFE44247C2445FC7C248C
:103D8000442054A04840010001000100010011003E
:103D9000110011F8110011001100110011001100A3
:103DA0001100FFFE00000040044004200820101015
:103DB000200840049FE2042004200420082008205A
:103DC000102021404080102010203C20202041FC69
:103DD000BD2411241124FD2411FC112410201420D1
:103DE0001820102000200040204017FC104083F8CD
:103DF000404047FE100013F82208E3F8220823F899
:103E00002208222802100000FE7C2844287CFE4460
:103E1000AA7CAA10AA50AE7CC2908210FE7C8210AE
:103E20008210FEFE8200000027FC140414A48110FE
:103E300042084040104017FC2040E0E0215022485A
:103E40002C462040004000100078F3C09040904085
:103E5000F7FC92489248F7FE9248924897FCF0404F
:103E6000904007FC000000A02090108010B887C090
:103E7000408040BC17C010882090E060204420A4FF
:103E80002114260C000400100078F3C090409040EC
:103E9000F7FC92489248F7FE9248924897FCF0400F
:103EA000904007FC000002000100FFFE00001450DB
:103EB000139014501FF001007FFC420444444FE46F
:103EC000442440144008010000803FFE2000208070
:103ED00020802FFC208021C022A022A0249048888E
:103EE000508680800080000000000000000000007C
:103EF0000000000000000010101010101010101032
:103F000000001010000000006C6C24240000000071
:103F10000100000000000024242424FE48484848F2
:103F2000FC909090900000103C54929050381412E5
:103F30001292547810000000225C94A848101024BB
:103F40002A5254880000000030484850206E549493
:103F50008C888A74000000003030101000000000CF
:103F60000000000000000004081010202020202085
:103F700020101008040000804020201010101010A5
:103F800010202040800000000000105438103854E9
:103F900010000000000000000010101010FE1010B3
:103FA00010100000000000000000000000000000F1
:103FB00000001010200000000000000000FE0000C3
:103FC00000000000000000000000000000000000F1
:103FD0000000101000000000040408081010202049
:103FE00040408080000000003844828282828282C9
:103FF0008282443800000000107010101010101061
:104000001010107C00000000384482820408102048
:10401000408284FC0000000038448202043804021C
:104020000282443800000000040C14142424444488
:10403000FE04040E00000000FC808080B8C48202F0
:1040400002828478000000003C428280B8C48282F0
:1040500082824438000000007E428204040808087E
:10406000101010100000000038448282443844824E
:104070008282443800000000384482828282463ABC
:104080000282443800000000000010100000000010
:1040900010100000000000000000101000000000E0
:1040A000001010200000000000000618608060185A
:1040B000060000000000000000000000FE0000FEFE
:1040C00000000000000000000000C0300C020C30B6
:1040D000C000000000000038448282020408101072
:1040E00010001010000000003844829AAAAAAAAA60
:1040F000AA9680423C000000101010282828444452
:104100007C4444EE00000000FC424242427C4242B9
:10411000424242FC000000003C448280808080805B
:104120008282443800000000F84442424242424247
:10413000424244F800000000FC444240447C4440B9
:10414000404244FC00000000FC444240447C4440A7
:10415000404040F000000000344C828080808E841B
:1041600084844C3400000000EE444444447C4444C5
:10417000444444EE000000007C1010101010101099
:104180001010107C000000003E080808080808080D
:104190000888887000000000EE444848506050488D
:1041A000484444EE00000000E040404040404040B1
:1041B000404244FC00000000C6446C6C6C545454F3
:1041C000444444EE00000000CE4464646454544C03
:1041D0004C4C44E400000000384482828282828297
:1041E0008282443800000000F84442424244784051
:1041F000404040E000000000384482828282828297
:1042000082BA443C02000000F048444444487048EC
:10421000444444E6000000003C44828040300C02EC
:1042200002824478000000007C549210101010109C
:104230001010103800000000EE444444444444444C
:104240004444443800000000EE44444444282828F4
:104250002810101000000000EE44545454545454DC
:104260002828282800000000EE44442828101028A0
:10427000284444EE00000000EE4444282828101092
:1042800010101038000000007E4484080810202020
:10429000408284FC0000001C101010101010101040
:1042A000101010101C000000EE445454FE545454DE
:1042B000282828280000007010101010101010106E
:1042C0001010101070000030488400000000000042
:1042D00000000000000000000000000000000000DE
:1042E00000000000FE000040200000000000000070
:1042F0000000000000000000000000007884047C42
:1043000084848C7600000000C040404058644242E3
:1043100042426458000000000000000038448080E1
:1043200080804438000000000C040404344C848471
:1043300084844C360000000000000000788484FC77
:10434000808084780000000018242020F82020209D
:104350002020207000000000000000003A44447853
:10436000807C82827C000000C0404040586444440D
:10437000444444EE00000000101000003010101003
:104380001010103800000000101000003010101045
:104390001010109060000000C04040405C48506029
:1043A000504844EE000000003010101010111010A2
:1043B000101010390000000000000000ACD29292F2
:1043C000929292D6000000000000000058E444449D
:1043D000444444EE000000000000000038448282A3
:1043E000828244380000000000000000D86442428D
:1043F00042645840E000000000000000364C848415
:10440000844C34040E000000000000006C302020BA
:1044100020202070000000000000000078888460E8
:10442000188444780000000000202020F82020207C
:10443000202024180000000000000000C642424274
:104440004242463A0000000000000000EE444428CA
:10445000282810100000000000000000EE44445422
:10446000542828280000000000000000EE44281016
:10447000102844EE0000000000000000EE44442834
:10448000281010A0C0000000000000007E4488102A
:10449000204284FC0000000C10101010106010105E
:1044A000101010100C000010101010101010101030
:1044B00010101010100000C02020202020182020F4
:1044C00020202020C00000000000000000728C00AE
:1044D0000000000000000000F84400080000002078
:1044E0003C0000004C230008344500083C0000203C
:1044F000640E00005C2300080000000000000000C3
:1045000000000000000000000000000000000000AB
:10451000000000000000000000000000000000009B
:104520000000000000000000030000000000124234
:044530000000000087
:0400000508000131BD
:00000001FF
